:2000000052C100007DC100007BC1000079C1000077C1000075C1000073C1000071C1000045
:200020006FC10000F9C3000024C400004FC4000067C1000065C1000063C1000061C1000045
:200040005FC100005DC100005BC1000059C1000057C1000055C1000053C1000022C7000001
:200060004FC100000C9477090C94BB0A49C1000047C1000045C1000043C1000041C10000CD
:200080003FC100003DC100003BC1000039C100000C94B7090C94FA0A33C1000031C1000082
:2000A0002FC100002DC100002BC1000029C1000027C1000025C1000023C1000021C10000F8
:2000C0001FC100001DC100001BC100000C94F7090C94390B15C100000C94370A0C94780B28
:2000E0000FC1000000C201000100110011000C0000E100000A002500250021000096000052
:200100001900390039003600127A00001F004600460044008070000022004D004D004A00AD
:20012000004B00003600750075007200403800004A009C009C009900802500007200EC004C
:20014000EC00E900C0120000E900DA01DA01D70160090000D701B603B603B303B004000064
:20016000B3036E076E076B07580200006E07DC0EDC0ED80E2C010000DC0EC11DC11DBE1D36
:2001800000002100240027002A002D003000330001010000040107010A01000022002500D8
:2001A00028002B002E003100340002010000050108010B01000020002300260029002C007D
:2001C0002F0032000001000003010601090105050505070508080808020202020A0A08083C
:2001E0000404040401010101010101010303030303030303040707070C0C0C0C0C0C0C0C56
:200200000202020206060606060606060B0B0B0B0B0B0B0B0102102020080810204010204B
:200220004080020102010804020101020408102040808040201008040201800402018040A4
:2002400020100804020108040201010204081020408001020408102040800000090A020835
:200260000B0C0D070603040100000000000000000000000000000000000000000000000045
:2002800000000000000011100F00000000000000000000000000000000000000000000002E
:2002A000F801E70CF30111241FBECFEFD1E2DEBFCDBF00E00CBF12E0A0E0B2E0ECEBFEE14D
:2002C00000E00BBF02C007900D92A838B107D9F71BBE15E0A8E8B2E001C01D92A03EB1071E
:2002E000E1F712E0C4EAD2E004C02297FE010E94170FC03AD107C9F70E941D0E0C94520F30
:200300007FCEA0E0B0E0E7E8F1E00C94230FEC01A880B980CA80DB80A114B104C104D10417
:2003200041F484E2A82E89EDB82E8BE5C82E87E0D82EC601B5012DE133EF41E050E00E947D
:20034000E60E27EA31E440E050E00E94920E7B018C01C601B5012DE133EF41E050E00E9448
:20036000E60ECA01B9012CEE34EF4FEF5FEF0E94920E6E0D7F1D801F911F97FF04C0615088
:20038000704080409048688379838A839B839B01AC015F77B901CA01CDB7DEB7EAE00C94DC
:2003A0003F0FAFCF80E092E0ACCF6093000270930102809302029093030208958130910506
:2003C00049F46F5F7F4F71F488E892E062E043E020E03BC5892B31F46F5F7F4F19F488E8A6
:2003E00092E0C0C3089580E090E06FEF7FEFE6CF81E090E06FEF7FEFE1CFEF92FF920F9319
:200400001F93082FF62EE42E88E892E0602FECD388E892E06F2DE8D310E0007F1070013B29
:20042000110524F488E892E06E2DDED31F910F91FF90EF90089590910402892BDECF9091BC
:200440000502892BDACFEF92FF920F931F93CF93DF936FD52091DB023091DC024091DD02DD
:200460005091DE02621B730B840B950B2091DF023091E0024091E1025091E2022617370768
:200480004807590708F04EC0C4E1D2E0888160E0CCD6229682E0C432D807C1F760E070E02E
:2004A00080E090E027E030E040E050E00E94750EDC01CB018E0100511040880F991F800F29
:2004C000911FFC01808161E0B0D660E070E080E090E027E030E040E050E00E94750E660F46
:2004E000771F060F171FF801808161E09ED668EE73E080E090E020EA3FE040E050E00E94D8
:20050000750E6093DF027093E0028093E1029093E2020FD56093DB027093DC028093DD021B
:200520009093DE021092DA021092D902C0E0D0E0FE01EC5DFD4F8081AAD6FE01EC55FD4FCC
:20054000918380832091D9023091DA02280F391F3093DA022093D9022296C232D10541F7E5
:2005600081E090E0821B930B2091110230911202829FA001839F500D929F500D11248091C1
:200580000F0290911002480F591F80910D0290910E02481759070CF4AC0180910602609181
:2005A00008022BDFC4EAD2E086ECE82E82E0F82E06E412E0888199818130910561F4F70124
:2005C00080818823A9F48091D702F801608140910B0235DF0DC0892B59F4F70180818130A4
:2005E00039F48091D702F801608140910B0223DF8881F70181937F0122960E5F1F4FF2E030
:20060000C63CDF07B9F695D42091E3023091E4024091E5025091E602621B730B840B950BF2
:200620002091E7023091E8024091E9025091EA02261737074807590730F560E08091130237
:20064000882309F461E060931302662329F088E893E1A0E0B0E004C080E69AEEA0E0B0E051
:200660008093E7029093E802A093E902B093EA0281E4DBD55ED46093E3027093E402809309
:20068000E5029093E602DF91CF911F910F91FF90EF9008951F93CF93DF9388E595E040E80D
:2006A00055E260E070E00E94B70B88E892E042E15AE760E070E037D184E061E003D584E050
:2006C00061E0B3D588E061E0FDD488E060E0ADD564E670E080E090E03AD488E061E0A5D512
:2006E00064E670E080E090E032D4809106026091080240910F0281DEC4E2D2E0888160E094
:20070000E1D4229682E0C634D807C1F7C4E1D2E01881812F61E0D6D4812F60E086D52296EB
:2007200082E0C432D807A1F780910702609109024091D70262DE80E461E0C4D4DF91CF91DD
:200740001F9108950F931F93CF93DF93FC01738D76957170A685B7859585772329F08C91EA
:20076000892309F454C004C08C91892309F04FC08389948920E001972FEF8F3F9207D9F711
:20078000C589D689A685B785158560E031E040E050E000E0CE01202F01972FEF8F3F9207EF
:2007A000D9F78C91812311F0632B03C0832F80956823330F4F5F5F4F4830510559F7878938
:2007C000908D20E001972FEF8F3F9207D9F77111609580912D0320912E0390E001968F736C
:2007E000907030E08217930779F0E0912D03F0E0E351FD4F608380912D0390E001968F732F
:20080000907080932D0303C0838D8160838FDF91CF911F910F9108951F920F920FB60F925A
:200820000BB60F9211242F933F934F935F936F937F938F939F93AF93BF93EF93FF93809198
:20084000EB029091EC02009709F07CDFFF91EF91BF91AF919F918F917F916F915F914F91E1
:200860003F912F910F900BBE0F900FBE0F901F9018951F920F920FB60F920BB60F921124CA
:200880002F933F934F935F936F937F938F939F93AF93BF93EF93FF938091EB029091EC02D3
:2008A000009709F04FDFFF91EF91BF91AF919F918F917F916F915F914F913F912F910F907B
:2008C0000BBE0F900FBE0F901F9018951F920F920FB60F920BB60F9211242F933F934F9323
:2008E0005F936F937F938F939F93AF93BF93EF93FF938091EB029091EC02009709F022DF58
:20090000FF91EF91BF91AF919F918F917F916F915F914F913F912F910F900BBE0F900FBEA3
:200920000F901F901895CF92DF92EF92FF920F931F93CF93DF93EC017A018B011A8E198E6D
:20094000188E1F8A1E8A1D8A1C8A1B8A20E030E06901CC0CDD1CC20ED31EB601660F771FE0
:20096000660F771FAB014C515F4FFA0185919591A591B4918E159F05A007B107E9F4FB0144
:20098000E851FF4F859194919C8B8B8BFB01E651FF4F859194919E8B8D8BFB01E451FF4FDC
:2009A00085919491988F8F8BFB01E251FF4F859194919A8F898F06C02F5F3F4F2D3031054D
:2009C00009F0C6CF8F89988D892B09F468C09C85292F2A50243040F0892F8253843020F0AB
:2009E0008C50883008F053C030916800243048F0892F8253843028F09E53983010F484E029
:200A000001C081E0832B809368002C85922F9A50943090F0822F8253843070F08C508830BD
:200A200008F455C0A0E0B0E0883018F0E0E0F0E007C0EDE6F0E004C0EBE6F0E0ABE6B0E055
:200A40004081943020F430E02650304015C0223311F488E01AC0233311F484E016C02433AA
:200A600011F482E012C0253379F0822F8E53883058F430E02E53304081E090E002C0880FBB
:200A8000991F2A95E2F701C081E0842B8C93898D9A8D20E001972FEF8F3F9207D9F78091DB
:200AA000EB029091EC028C179D07A1F08B8D8E7F8B8F9FB7F89410922D0380912D0380931B
:200AC0002E03D093EC02C093EB029FBF03C0ADE6B0E0AACFDF91CF911F910F91FF90EF9069
:200AE000DF90CF900895FC012485922F9A50943060F0822F8253843040F08C50883088F5AB
:200B0000EDE6F0E0ADE6B0E004C0EBE6F0E0ABE6B0E04081943020F430E02650304015C025
:200B2000223311F487EF1BC0233311F48BEF17C0243311F48DEF13C0253381F0822F8E5358
:200B4000883060F430E02E53304081E090E002C0880F991F2A95E2F7809501C08EEF842314
:200B60008C930895FC018CE692E091838083CF01BACF2091EB023091EC022817390731F477
:200B800090912E0380912D03981719F42FEF3FEF0FC0E0912E03F0E0E351FD4F2081809147
:200BA0002E0390E001968F73907080932E0330E0C90108952091EB023091EC022817390774
:200BC00019F020E030E00EC080912D0320912E0390E0805C9F4F821B910960E470E00E9464
:200BE000B10E9C01C90108950F931F93DC0159968D919C915A97892B49F481E090E013966B
:200C00009C938E93129720E030E097C00FB7F8945B968C915B975196ED91FC915297509661
:200C20002C91509781FF8DC08081822B808359968D919C915A97059620E001972FEF8F3F48
:200C40009207D9F75B968C915B9781FF35C031E040E050E070E010E0832F90E08623972390
:200C60005196ED91FC91529750962C915097892B29F0808120952823208303C08081822B2D
:200C8000808359968D919C915A97212F01972FEF8F3F9207D9F7330F4F5F5F4F483051057D
:200CA000D9F65196ED91FC915297908150968C9150978095892333C031E040E050E070E02A
:200CC00010E0832F90E0862397235196ED91FC91529750962C915097892B21F08081822BC7
:200CE000808304C0808120952823208359968D919C915A97212F01972FEF8F3F9207D9F721
:200D0000330F4F5F5F4F48305105D9F65196ED91FC915297808150969C915097892B80830B
:200D20000FBF59968D919C915A9720E001972FEF8F3F9207D9F721E030E0C9011F910F91A2
:200D40000895808120952823208371CF2091EB023091EC022817390749F49FB7F894109285
:200D60002D0380912D0380932E039FBF08952091EB023091EC022817390731F490912E0380
:200D800080912D03981719F42FEF3FEF0AC0E0912E03F0E0E351FD4F8081282F332727FD78
:200DA0003095C90108951F93CF93DF93EC01162F862F60E087D18B8D81FD03C0812F61E0B8
:200DC00034D21C87212F30E0C9018C5E9D4FFC0184918D8722533E4FF9016491E62FF0E06E
:200DE000EE0FFF1FEC54FE4F859194919F878E87DF91CF911F910895FF920F931F938C0146
:200E0000F62E862F61E05ED18F2D61E00ED28F2D90E0FC01EC5EFD4FE491D8015096EC933A
:200E2000509782539E4FFC016491E62FF0E0EE0FFF1FE656FE4F8591949152969C938E931B
:200E400051971F910F91FF900895FF920F931F938C01F62EFC011382128288EE93E0A0E009
:200E6000B0E084839583A683B7838CE692E091838083148A138A168A158A108E178A128E0C
:200E8000118E838D2170220F8C7F822B838FC801642FB2DFC8016F2D86DF1F910F91FF9081
:200EA00008951F920F920FB60F9211242F933F938F939F93AF93BF9380913303909134038D
:200EC000A0913503B0913603309137030196A11DB11D232F2D5F2D3720F02D570196A11DE6
:200EE000B11D209337038093330390933403A0933503B093360380912F0390913003A091E5
:200F00003103B09132030196A11DB11D80932F0390933003A0933103B0933203BF91AF91FA
:200F20009F918F913F912F910F900FBE0F901F9018958FB7F89420913303309134034091E8
:200F40003503509136038FBFB901CA0108959B01AC017FB7F89480912F0390913003A091FC
:200F60003103B091320366B5A89B05C06F3F19F00196A11DB11D7FBFBA2FA92F982F882755
:200F8000860F911DA11DB11D62E0880F991FAA1FBB1F6A95D1F7BC012DC0FFB7F89480918A
:200FA0002F0390913003A0913103B0913203E6B5A89B05C0EF3F19F00196A11DB11DFFBF15
:200FC000BA2FA92F982F88278E0F911DA11DB11DE2E0880F991FAA1FBB1FEA95D1F7861B67
:200FE000970B885E9340C8F2215030404040504068517C4F211531054105510571F608955B
:20100000789484B5826084BD84B5816084BD85B5826085BD85B5816085BDEEE6F0E08081AD
:2010200081608083E1E8F0E01082808182608083808181608083E0E8F0E080818160808359
:20104000E1EBF0E0808184608083E0EBF0E0808181608083E1E9F0E080818260808380810B
:2010600081608083E0E9F0E0808181608083E1EAF0E0808182608083808181608083E0EADE
:20108000F0E0808181608083E1E2F1E0808182608083808181608083E0E2F1E080818160C7
:2010A0008083EAE7F0E080818460808380818260808380818160808380818068808310924B
:2010C000C1000895CF93DF93482F50E0CA018C5E9D4FFC01349142535E4FFA0184918823D7
:2010E00069F190E0880F991FFC01E058FE4FA591B491FC01E656FE4FC591D491662351F4CB
:201100002FB7F8948C91932F909589238C93888189230BC0623061F42FB7F8948C91932FD6
:20112000909589238C938881832B88832FBF06C09FB7F8948C91832B8C939FBFDF91CF914F
:201140000895893009F449C08A30A0F4843051F1853040F4823079F1833000F5813009F098
:2011600063C026C0873079F1883098F5863009F05BC025C08D3009F442C08E3028F48B3000
:20118000B1F18C30C0F52DC0803109F442C0813109F445C08F3009F047C037C080918000A4
:2011A0008F7703C0809180008F7D80938000089584B58F7702C084B58F7D84BD0895809164
:2011C000B0008F7703C08091B0008F7D8093B0000895809190008F7707C0809190008F7D4E
:2011E00003C080919000877F8093900008958091A0008F7707C08091A0008F7D03C0809136
:20120000A000877F8093A0000895809120018F7703C0809120018F7D8093200108958091BD
:201220002001877F809320010895FF920F931F93F62E482F50E0CA01865A9D4FFC012491BD
:20124000CA018C5E9D4FFC01149142535E4FFA0104910023C1F0222311F0822F72DFE02F4E
:20126000F0E0EE0FFF1FE656FE4FA591B4919FB7F894FF2021F48C911095812302C08C9124
:20128000812B8C939FBF1F910F91FF9008950F931F93482F50E0CA01865A9D4FFC01249165
:2012A000CA018C5E9D4FFC01049142535E4FFA011491112319F420E030E014C0222311F0AE
:2012C000822F3FDF812F90E0880F991F8C549E4FFC01A591B4918C9120E030E0802311F0BA
:2012E00021E030E0C9011F910F91089508951F920F920FB60F920BB60F9211242F933F93A6
:201300004F938F939F93EF93FF938091C00082FD1DC04091C60020917803309179032F5FC8
:201320003F4F2F73307080917A0390917B032817390771F0E0917803F0917903E85CFC4F58
:201340004083309379032093780302C08091C600FF91EF919F918F914F913F912F910F9055
:201360000BBE0F900FBE0F901F90189508951F920F920FB60F920BB60F9211242F933F93BD
:201380004F938F939F93EF93FF938091C80082FD1DC04091CE0020910004309101042F5F26
:2013A0003F4F2F73307080910204909103042817390771F0E0910004F0910104E054FC4FC4
:2013C0004083309301042093000402C08091CE00FF91EF919F918F914F913F912F910F90BB
:2013E0000BBE0F900FBE0F901F90189508951F920F920FB60F920BB60F9211242F933F933D
:201400004F938F939F93EF93FF938091D00082FD1DC04091D60020918804309189042F5F85
:201420003F4F2F73307080918A0490918B042817390771F0E0918804F0918904E85BFB4F15
:201440004083309389042093880402C08091D600FF91EF919F918F914F913F912F910F9022
:201460000BBE0F900FBE0F901F90189508951F920F920FB60F920BB60F9211242F933F93BC
:201480004F938F939F93EF93FF938091300182FD1DC04091360120911005309111052F5F31
:2014A0003F4F2F73307080911205909113052817390771F0E0911005F0911105E053FB4F81
:2014C0004083309311052093100502C080913601FF91EF919F918F914F913F912F910F902F
:2014E0000BBE0F900FBE0F901F901895E0916405F0916505E05CFF4F8191919120813181E6
:20150000821B930B8F739070892B09F0EFDEE0918605F0918705E05CFF4F819191912081AC
:201520003181821B930B8F739070892B09F01EDFE091A805F091A905E05CFF4F8191919107
:2015400020813181821B930B8F739070892B09F04DDFE091CA05F091CB05E05CFF4F8191F5
:20156000919120813181821B930B8F739070892B09F07CCF08951F920F920FB60F920BB6AB
:201580000F9211242F933F938F939F93EF93FF932091BC033091BD038091BE039091BF03D3
:2015A0002817390731F48091C1008F7D8093C10014C0E091BE03F091BF03E458FC4F208164
:2015C0008091BE039091BF0301968F7390709093BF038093BE032093C600FF91EF919F914B
:2015E0008F913F912F910F900BBE0F900FBE0F901F9018951F920F920FB60F920BB60F9252
:2016000011242F933F938F939F93EF93FF9320914404309145048091460490914704281790
:20162000390731F48091C9008F7D8093C90014C0E0914604F0914704EC5FFB4F20818091E1
:2016400046049091470401968F73907090934704809346042093CE00FF91EF919F918F918F
:201660003F912F910F900BBE0F900FBE0F901F9018951F920F920FB60F920BB60F921124BC
:201680002F933F938F939F93EF93FF932091CC043091CD048091CE049091CF0428173907E5
:2016A00031F48091D1008F7D8093D10014C0E091CE04F091CF04E457FB4F20818091CE04BF
:2016C0009091CF0401968F7390709093CF048093CE042093D600FF91EF919F918F913F91E9
:2016E0002F910F900BBE0F900FBE0F901F9018951F920F920FB60F920BB60F9211242F934A
:201700003F938F939F93EF93FF93209154053091550580915605909157052817390731F4DD
:20172000809131018F7D8093310114C0E0915605F0915705EC5EFA4F2081809156059091D7
:20174000570501968F739070909357058093560520933601FF91EF919F918F913F912F91CD
:201760000F900BBE0F900FBE0F901F901895AF92BF92DF92EF92FF920F931F93CF93DF935D
:20178000EC017A018B01DD24403081EE580780E0680780E0780711F0DD24D39491E0A92EB7
:2017A000B12CEC89FD89DD2069F0C50108A002C0880F991F0A94E2F7808360E079E08DE3F9
:2017C00090E005C0108260E874E88EE190E0A8019701DAD22150304040405040569547951A
:2017E0003795279580E12030380720F0DD2011F0DD24D7CFE889F9893083EA89FB8920837C
:2018000019A2EE89FF89408121E030E0C9010C8C02C0880F991F0A94E2F7482B4083EE89A5
:20182000FF894081C9010D8C02C0880F991F0A94E2F7482B4083EE89FF894081C9010E8C1A
:2018400002C0880F991F0A94E2F7482B4083EE89FF8980810F8C02C0220F331F0A94E2F773
:20186000209528232083DF91CF911F910F91FF90EF90DF90BF90AF900895DC011C96ED91F0
:20188000FC911D97E05CFF4F2191319180819181281B390B2F733070C9010895DC011C9637
:2018A000ED91FC911D97E05CFF4F20813181E054F040DF01AE5BBF4F8D919C9111972817FF
:2018C000390719F42FEF3FEF07C08D919C91E80FF91F8081282F30E0C9010895DC011C96F0
:2018E000ED91FC911D97E05CFF4F20813181E054F040DF01AE5BBF4F8D919C9111972817BF
:20190000390719F42FEF3FEF10C08D919C911197E80FF91F20818D919C91119701968F732F
:20192000907011969C938E9330E0C9010895DC0191968C919197882339F05496ED91FC9127
:201940005597808186FFF9CF91961C920895CF93DF93EC01EE85FF85E05CFF4F2081318146
:20196000E054F0402F5F3F4F2F733070DF01AE5BBF4F8D919C91119728173907D1F3E05C3C
:20198000FF4F80819181E054F040E80FF91F6083EE85FF85E05CFF4F31832083EE89FF89B9
:2019A000208181E090E00F8C02C0880F991F0A94E2F7282B208381E089A3EC89FD89808113
:2019C0008064808381E090E0DF91CF9108951F9310925B0510925A0528EE33E040E050E0B4
:2019E00020935C0530935D0540935E0550935F056CE772E0709359056093580588E393E0FD
:201A000090936505809364058CE793E0909367058093660585EC90E09093690580936805D8
:201A200084EC90E090936B0580936A0580EC90E090936D0580936C0581EC90E090936F0548
:201A400080936E0582EC90E0909371058093700586EC90E0909373058093720514E0109363
:201A60007405B3E0B0937505A7E0A0937605F5E0F0937705E1E0E093780510927D0510921D
:201A80007C0520937E0530937F05409380055093810570937B0560937A0580EC93E0909390
:201AA00087058093860584E094E090938905809388058DEC90E090938B0580938A058CEC1D
:201AC00090E090938D0580938C0588EC90E090938F0580938E0589EC90E09093910580934B
:201AE00090058AEC90E090939305809392058EEC90E0909395058093940510939605B09332
:201B00009705A0939805F0939905E0939A0510929F0510929E052093A0053093A105409307
:201B2000A2055093A30570939D0560939C0588E494E09093A9058093A8058CE894E09093BE
:201B4000AB058093AA0585ED90E09093AD058093AC0584ED90E09093AF058093AE0580EDAD
:201B600090E09093B1058093B00581ED90E09093B3058093B20582ED90E09093B505809302
:201B8000B40586ED90E09093B7058093B6051093B805B093B905A093BA05F093BB05E093F3
:201BA000BC051092C1051092C0052093C2053093C3054093C4055093C5057093BF0560938D
:201BC000BE0580ED94E09093CB058093CA0584E195E09093CD058093CC0585E391E09093DD
:201BE000CF058093CE0584E391E09093D1058093D00580E391E09093D3058093D20581E355
:201C000091E09093D5058093D40582E391E09093D7058093D60586E391E09093D9058093B9
:201C2000D8051093DA05B093DB05A093DC05F093DD05E093DE051F910895CF93DF93E0D979
:201C40000E944A03C6E7DAE00E9423022097E1F34DDCFACFCF92DF92EF92FF920F931F93B2
:201C6000CF93DF937C016B018A01C0E0D0E00FC0D6016D916D01D701ED91FC910190F081D5
:201C8000E02DC7011995C80FD91F015010400115110571F7CE01DF91CF911F910F91FF903F
:201CA000EF90DF90CF900895EF92FF920F931F937B018C01611571058105910529F420E0A6
:201CC00030E040E050E00AC00E94D201A80197017DD0AC01CB01DA019C01AD01B901CA01B3
:201CE0001F910F91FF90EF900895EF92FF920F931F937B018C0162177307840795075CF410
:201D0000261B370B480B590BCA01B901CDDFE60EF71E081F191FB701C8011F910F91FF9090
:201D2000EF900895629FD001739FF001829FE00DF11D649FE00DF11D929FF00D839FF00D4B
:201D4000749FF00D659FF00D9927729FB00DE11DF91F639FB00DE11DF91FBD01CF01112436
:201D6000089597FB092E07260AD077FD04D049D006D000201AF4709561957F4F0895F6F73E
:201D8000909581959F4F0895A1E21A2EAA1BBB1BFD010DC0AA1FBB1FEE1FFF1FA217B3070B
:201DA000E407F50720F0A21BB30BE40BF50B661F771F881F991F1A9469F76095709580952B
:201DC00090959B01AC01BD01CF01089597FB092E05260ED057FD04D0D7DF0AD0001C38F498
:201DE00050954095309521953F4F4F4F5F4F0895F6F790958095709561957F4F8F4F9F4F7B
:201E00000895AA1BBB1B51E107C0AA1FBB1FA617B70710F0A61BB70B881F991F5A95A9F702
:201E200080959095BC01CD010895EE0FFF1F0590F491E02D19942F923F924F925F926F92EC
:201E40007F928F929F92AF92BF92CF92DF92EF92FF920F931F93CF93DF93CDB7DEB7CA1B83
:201E6000DB0B0FB6F894DEBF0FBECDBF19942A88398848885F846E847D848C849B84AA8412
:201E8000B984C884DF80EE80FD800C811B81AA81B981CE0FD11D0FB6F894DEBF0FBECDBFCF
:201EA000ED01089512E0C4EAD2E003C0FE01BFDF2296C63AD107D1F7F894FFCF0100000032
:201EC0008090B0C0070A003C003C007F000500012A002B002C002D002E002F003100000038
:201EE00016001700180019001A001B001C001D001E001F002000210022002300240025000A
:201F00002600300032003400370039003C003E0040004300450048004A004C004F005100D5
:201F20005400560000000000F4052A0EDA05B905B706A60600000000A70C2A0E3D0C6E0C12
:201F40004E0C970CFFFFFFFFFFFFFFFFFFFFFFFFFFFFFFFFFFFFFFFFFFFFFFFFFFFFFFFFA0
:201F6000FFFFFFFFFFFFFFFFFFFFFFFFFFFFFFFFFFFFFFFFFFFFFFFFFFFFFFFFFFFFFFFF81
:201F8000FFFFFFFFFFFFFFFFFFFFFFFFFFFFFFFFFFFFFFFFFFFFFFFFFFFFFFFFFFFFFFFF61
:201FA000FFFFFFFFFFFFFFFFFFFFFFFFFFFFFFFFFFFFFFFFFFFFFFFFFFFFFFFFFFFFFFFF41
:201FC000FFFFFFFFFFFFFFFFFFFFFFFFFFFFFFFFFFFFFFFFFFFFFFFFFFFFFFFFFFFFFFFF21
:201FE000FFFFFFFFFFFFFFFFFFFFFFFFFFFFFFFFFFFFFFFFFFFFFFFFFFFFFFFFFFFFFFFF01
:202000000C00FFFFFFFFFFFFFFFFFFFFFFFFFFFFFFFFFFFFFFFFFFFFFFFFFFFFFFFFFFFFD2
:20202000FFFFFFFFFFFFFFFFFFFFFFFFFFFFFFFFFFFFFFFFFFFFFFFFFFFFFFFFFFFFFFFFC0
:20204000FFFFFFFFFFFFFFFFFFFFFFFFFFFFFFFFFFFFFFFFFFFFFFFFFFFFFFFFFFFFFFFFA0
:20206000FFFFFFFFFFFFFFFFFFFFFFFFFFFFFFFFFFFFFFFFFFFFFFFFFFFFFFFFFFFFFFFF80
:20208000FFFFFFFFFFFFFFFFFFFFFFFFFFFFFFFFFFFFFFFFFFFFFFFFFFFFFFFFFFFFFFFF60
:2020A000FFFFFFFFFFFFFFFFFFFFFFFFFFFFFFFFFFFFFFFFFFFFFFFFFFFFFFFFFFFFFFFF40
:2020C000FFFFFFFFFFFFFFFFFFFFFFFFFFFFFFFFFFFFFFFFFFFFFFFFFFFFFFFFFFFFFFFF20
:2020E000FFFFFFFFFFFFFFFFFFFFFFFFFFFFFFFFFFFFFFFFFFFFFFFFFFFFFFFFFFFFFFFF00
:202100003091DA0279010027F7FC0095102F6A197B098C099D09E616F7060807190768F5F3
:20212000EA0CFB1C0C1D1D1DE092B304F092B4040093B5041093B604C4EDD3E01AEC103178
:20214000C0F488818230A9F48091C0039091C103012E02C0959587950A94E2F780FF09C0C4
:20216000812F0E94D911AC0183E893E0612F0E9413071F5F2196103111F7DF91CF911F914E
:202180000F91FF90EF90DF90CF90BF90AF9008951F920F920FB60F9211242F933F938F93F5
:2021A0009F93AF93BF9380914F0590915005A0915105B0915205309153050196A11DB11D23
:2021C000232F2D5F2D3720F02D570196A11DB11D2093530580934F0590935005A093510593
:2021E000B093520580914B0590914C05A0914D05B0914E050196A11DB11D80934B059093B2
:202200004C05A0934D05B0934E05BF91AF919F918F913F912F910F900FBE0F901F9018957B
:202220008FB7F89420914F053091500540915105509152058FBFB901CA0108959B01AC0199
:202240007FB7F89480914B0590914C05A0914D05B0914E0566B5A89B05C06F3F19F0019661
:20226000A11DB11D7FBFBA2FA92F982F8827860F911DA11DB11D62E0880F991FAA1FBB1F5A
:202280006A95D1F7BC012DC0FFB7F89480914B0590914C05A0914D05B0914E05E6B5A89BC3
:2022A00005C0EF3F19F00196A11DB11DFFBFBA2FA92F982F88278E0F911DA11DB11DE2E071
:2022C000880F991FAA1FBB1FEA95D1F7861B970B885E9340C8F22150304040405040685165
:2022E0007C4F211531054105510571F60895789484B5826084BD84B5816084BD85B5826028
:2023000085BD85B5816085BDEEE6F0E0808181608083E1E8F0E01082808182608083808183
:2023200081608083E0E8F0E0808181608083E1EBF0E0808184608083E0EBF0E0808181603B
:202340008083E1E9F0E0808182608083808181608083E0E9F0E0808181608083E1EAF0E0FC
:20236000808182608083808181608083E0EAF0E0808181608083E1E2F1E080818260808399
:20238000808181608083E0E2F1E0808181608083EAE7F0E080818460808380818260808371
:2023A0008081816080838081806880831092C1000895382F863308F0365320917B00832FCD
:2023C00086958695869590E08170907043E0880F991F4A95E1F7277F282B20937B00377054
:2023E0008091DB028295880F880F807C832B80937C0080917A00806480937A0080917A00EA
:2024000086FDFCCF2091780040917900942F80E030E0282B392BC90108951F93CF93DF9324
:20242000182FEB0161E00E94E812209709F4C5C0CF3FD10509F4C4C0E12FF0E0E254FE4F8B
:202440008491893009F466C08A30B0F48430F1F1853040F4823059F1833070F5813009F0F0
:20246000A9C020C0873009F443C0883008F048C0863009F09FC034C08D3009F473C08E30F7
:2024800038F48B3009F45AC08C3008F061C04CC08F3009F47BC08F3008F46EC0803109F0D3
:2024A00089C07EC084B5806884BDC7BD8DC084B5806284BDC8BD88C08091800080688093AD
:2024C0008000D0938900C09388007EC080918000806280938000D0938B00C0938A0074C072
:2024E0008091B00080688093B000C093B3006CC08091B00080628093B000C093B40064C0AD
:2025000080919000806880939000D0939900C09398005AC080919000806280939000D09305
:202520009B00C0939A0050C080919000886080939000D0939D00C0939C0046C08091A00031
:2025400080688093A000D093A900C093A8003CC08091A00080628093A000D093AB00C09336
:20256000AA0032C08091A00088608093A000D093AD00C093AC0028C080912001806880934F
:202580002001D0932901C09328011EC080912001806280932001D0932B01C0932A0114C00A
:2025A00080912001886080932001D0932D01C0932C010AC0C038D1051CF4812F60E002C062
:2025C000812F61E00E948113DF91CF911F910895482F50E0CA0188589E4FFC0124914E5C1C
:2025E0005E4FFA0184918823C1F0E82FF0E0EE0FFF1FEC51FF4FA591B491662341F49FB7A6
:20260000F8948C91209582238C939FBF08959FB7F8948C91822B8C939FBF0895893009F421
:2026200048C08A30A0F4843049F1853040F4823071F18330F8F4813009F062C025C0873052
:2026400071F1883090F5863009F05AC024C08D3009F441C08E3028F48B30A9F18C30B8F5DB
:202660002CC08F3009F441C08F30D8F1803109F047C041C0809180008F7703C0809180008C
:202680008F7D80938000089584B58F7702C084B58F7D84BD08958091B0008F7703C080913F
:2026A000B0008F7D8093B0000895809190008F7707C0809190008F7D03C080919000877F79
:2026C0008093900008958091A0008F7707C08091A0008F7D03C08091A000877F8093A00052
:2026E0000895809120018F7703C0809120018F7D80932001089580912001877F80932001C7
:202700000895FF920F931F93F62E482F50E0CA0182549E4FFC012491CA0188589E4FFC0197
:2027200014914E5C5E4FFA0104910023D9F0222319F0822F0E940E13E02FF0E0EE0FFF1F65
:20274000E250FF4FA591B491FF2031F49FB7F8948C911095812304C09FB7F8948C91812B83
:202760008C939FBF1F910F91FF9008950F931F93482F50E0CA0182549E4FFC012491CA015A
:2027800088589E4FFC0104914E5C5E4FFA011491112319F420E030E015C0222319F0822FBE
:2027A0000E940E13812F90E0880F991F885E9E4FFC01A591B4918C9120E030E0802311F0CB
:2027C00021E030E0C9011F910F9108951F920F920FB60F920BB60F9211242F933F934F936C
:2027E0008F939F93EF93FF934091C600E091D405F091D50531969F012F77307031978091AF
:20280000D6059091D7052817390739F0EC5AFA4F40833093D5052093D405FF91EF919F917D
:202820008F914F913F912F910F900BBE0F900FBE0F901F9018951F920F920FB60F920BB6C0
:202840000F9211242F933F934F938F939F93EF93FF934091CE00E0915806F09159063196AF
:202860009F012F773070319780915A0690915B062817390739F0E852FA4F408330935906A7
:2028800020935806FF91EF919F918F914F913F912F910F900BBE0F900FBE0F901F90189588
:2028A0001F920F920FB60F920BB60F9211242F933F934F938F939F93EF93FF934091D60044
:2028C000E091DC06F091DD0631969F012F77307031978091DE069091DF062817390739F029
:2028E000E45AF94F40833093DD062093DC06FF91EF919F918F914F913F912F910F900BBE1C
:202900000F900FBE0F901F9018951F920F920FB60F920BB60F9211242F933F934F938F9369
:202920009F93EF93FF9340913601E0916007F091610731969F012F77307031978091620799
:20294000909163072817390739F0E052F94F40833093610720936007FF91EF919F918F9162
:202960004F913F912F910F900BBE0F900FBE0F901F901895CF93DF93EC019A01AB01E885A3
:20298000F985203081EE380780E0480780E0580709F449C081E090E00A8802C0880F991FD3
:2029A0000A94E2F7808360E079E08DE390E00E9440182150304040405040CA01B90122E0B2
:2029C00030E040E050E00E944018EC81FD813083EE81FF812083EA85FB85208141E050E08C
:2029E000CA010E8402C0880F991F0A94E2F7282B2083EA85FB852081CA010F8402C0880FB5
:202A0000991F0A94E2F7282B2083EA85FB858081088802C0440F551F0A94E2F7842B80835F
:202A2000DF91CF910895108220E130E0CECFDC011296ED91FC911397E058FF4F21913191B5
:202A400080819181281B390B2F773070C9010895DC011296ED91FC911397EE57FF4F2081C1
:202A6000318192918291E058F0408217930719F42FEF3FEF05C0E20FF31F8081282F30E04A
:202A8000C9010895DC011296ED91FC911397DF01AE57BF4F2D913C911197E058FF4F8081E8
:202AA0009181E058F0408217930719F42FEF3FEF0BC0E20FF31F80812F5F3F4F2F773070DF
:202AC0002D933C93282F30E0C9010895DC011296ED91FC911397EE57FF4F80819181929394
:202AE00082930895FC01A085B18521898C9190E0022E02C0959587950A94E2F780FFF6CFA2
:202B00000484F585E02D6083089520EE32E0309365072093640784E595E090936707809337
:202B2000660785EC90E0909369078093680784EC90E090936B0780936A0780EC90E090933A
:202B40006D0780936C0781EC90E090936F0780936E0786EC90E09093710780937007E4E0B2
:202B6000E093720773E07093730767E06093740755E05093750741E040937607309378079D
:202B80002093770788ED95E090937A07809379078DEC90E090937C0780937B078CEC90E0D7
:202BA00090937E0780937D0788EC90E09093800780937F0789EC90E0909382078093810783
:202BC0008EEC90E09093840780938307E093850770938607609387075093880740938907DB
:202BE00030938B0720938A078CE596E090938D0780938C0785ED90E090938F0780938E07B5
:202C000084ED90E0909391078093900780ED90E0909393078093920781ED90E0909395078B
:202C20008093940786ED90E09093970780939607E09398077093990760939A0750939B07C4
:202C400040939C0730939E0720939D0780EE96E09093A00780939F0785E391E09093A20733
:202C60008093A10784E391E09093A4078093A30780E391E09093A6078093A50781E391E0FE
:202C80009093A8078093A70786E391E09093AA078093A907E093AB077093AC076093AD07AE
:202CA0005093AE074093AF0708950E9477110E949D0C0E943510FDCF0F931F93CF93DF9306
:202CC0008C01EB0109C02196D801ED91FC910190F081E02DC801199568816623A1F7DF9117
:202CE000CF911F910F910895EF92FF920F931F93CF93DF938C017B01EA010CC0D7016D91B7
:202D00007D01D801ED91FC910190F081E02DC80119952197209791F7DF91CF911F910F91B4
:202D2000FF90EF9008952F923F924F925F926F927F928F929F92AF92BF92CF92DF92EF923B
:202D4000FF920F931F93DF93CF93CDB7DEB7A0970FB6F894DEBF0FBECDBF1C016A017B011F
:202D6000411551056105710549F440E350E060E070E020E030E00E944E1756C08824992415
:202D80005401422E55246624772401E010E00C0F1D1F080D191DC701B601A30192010E9405
:202DA0001E18F80160830894811C911CA11CB11CC701B601A30192010E941E18C901DA015E
:202DC0006C017D01C114D104E104F104F1F681E0E82EF12CEC0EFD1EE80CF91C3E01089410
:202DE000611C711CD501C4010197A109B1096C01C818D90816C0F601EE0DFF1D40814A30E5
:202E000010F4405D01C0495C552747FD5095652F752FC10120E030E00E944E170894E10870
:202E2000F1086E147F0439F7A0960FB6F894DEBF0FBECDBFCF91DF911F910F91FF90EF90B9
:202E4000DF90CF90BF90AF909F908F907F906F905F904F903F902F900895DC012115310578
:202E600041F4ED91FC910190F081E02D642F199508950E9493160895EF92FF920F931F93D7
:202E80009A01E62EFF2400E010E0B801A7010E942D171F910F91FF90EF900895EF92FF923C
:202EA0000F931F93CF93DF93EC017A018B012115310541F4E881F9810190F081E02D642FD0
:202EC00019951BC02A303105B1F477FF10C04DE250E060E070E020E030E00E944E17109543
:202EE0000095F094E094E11CF11C011D111DCE01B801A7012AE00E949316DF91CF911F91EA
:202F00000F91FF90EF900895EF92FF920F931F937B019A010027F7FC0095102FB801A7019A
:202F20000E944E171F910F91FF90EF9008952F923F924F925F926F927F928F929F92AF9286
:202F4000BF92CF92DF92EF92FF920F931F93DF93CF93CDB7DEB73B014C0119012A016E8936
:202F60007F89888D998D6A197B098C099D09621A730A840A950AA40193010E94E017E218DA
:202F8000F30804091509A80197010E9440182A0D3B1D4C1D5D1DB901CA01CF91DF911F9159
:202FA0000F91FF90EF90DF90CF90BF90AF909F908F907F906F905F904F903F902F900895B2
:202FC000629FD001739FF001829FE00DF11D649FE00DF11D929FF00D839FF00D749FF00DA5
:202FE000659FF00D9927729FB00DE11DF91F639FB00DE11DF91FBD01CF0111240895991B43
:2030000079E004C0991F961708F0961B881F7A95C9F78095089597FB092E07260AD077FD19
:2030200004D049D006D000201AF4709561957F4F0895F6F7909581959F4F0895A1E21A2EBB
:20304000AA1BBB1BFD010DC0AA1FBB1FEE1FFF1FA217B307E407F50720F0A21BB30BE40B68
:20306000F50B661F771F881F991F1A9469F760957095809590959B01AC01BD01CF01089520
:2030800097FB092E05260ED057FD04D0D7DF0AD0001C38F450954095309521953F4F4F4FFD
:2030A0005F4F0895F6F790958095709561957F4F8F4F9F4F0895AA1BBB1B51E107C0AA1F0F
:2030C000BB1FA617B70710F0A61BB70B881F991F5A95A9F780959095BC01CD010895EE0FCB
:2030E000FF1F0590F491E02D1994F894FFCF2E63707000536572766F206F6E6C79206F6E25
:203100002070696E732066726F6D203220746F20313300493243206D6F6465206E6F742014
:2031200079657420737570706F7274656400556E6B6E6F776E2070696E206D6F6465004ECD
:203140006F7420656E6F7567682064617461002F7661722F666F6C646572732F714D2F7109
:203160004D625253563343325261522D452B42597048425A2B2B2B2B544D2F2D546D702D65
:203180002F6275696C64373137303932333031373631393339383432352E746D702F537497
:2031A000616E646172644669726D6174615F325F325F666F72554E4F5F305F332E63707095
:2031C000002000B40700001300010000000072155C1674161715421566152815FFFFFFFF46
:2031E000FFFFFFFFFFFFFFFFFFFFFFFFFFFFFFFFFFFFFFFFFFFFFFFFFFFFFFFFFFFFFFFFEF
:20320000FFFFFFFFFFFFFFFFFFFFFFFFFFFFFFFFFFFFFFFFFFFFFFFFFFFFFFFFFFFFFFFFCE
:20322000FFFFFFFFFFFFFFFFFFFFFFFFFFFFFFFFFFFFFFFFFFFFFFFFFFFFFFFFFFFFFFFFAE
:20324000FFFFFFFFFFFFFFFFFFFFFFFFFFFFFFFFFFFFFFFFFFFFFFFFFFFFFFFFFFFFFFFF8E
:020000040003F7
:20E000000D94F6F20D941FF30D941FF30D941FF30D941FF30D941FF30D941FF30D941FF392
:20E020000D941FF30D941FF30D941FF30D941FF30D941FF30D941FF30D941FF30D941FF348
:20E040000D941FF30D941FF30D941FF30D941FF30D941FF30D941FF30D941FF30D941FF328
:20E060000D941FF30D941FF30D941FF30D941FF30D941FF30D941FF30D941FF30D941FF308
:20E080000D941FF30D941FF30D941FF30D941FF30D941FF30D941FF30D941FF30D941FF3E8
:20E0A0000D941FF30D941FF30D941FF30D941FF30D941FF30D941FF30D941FF30D941FF3C8
:20E0C0000D941FF30D941FF30D941FF30D941FF30D941FF30D941FF30D941FF30D941FF3A8
:20E0E0000D941FF341546D656761323536300041726475696E6F206578706C6F72657220EE
:20E1000073746B3530305632206279204D4C5300426F6F746C6F616465723E004875683FDC
:20E1200000436F6D70696C6564206F6E20203D2000435055205479706520202020203D2071
:20E14000005F5F4156525F415243485F5F203D2000415652204C69624320566572203D2033
:20E16000004743432056657273696F6E20203D2000435055207369676E61747572653D20F8
:20E18000004C6F77206675736520202020203D2000486967682066757365202020203D204D
:20E1A00000457874206675736520202020203D20004C6F636B2066757365202020203D2025
:20E1C00000536570202039203230313000312E362E3700342E332E3300562320202041446D
:20E1E00044522020206F7020636F64652020202020696E737472756374696F6E20616464E4
:20E2000072202020496E74657272757074006E6F20766563746F7200726A6D702020006A6C
:20E220006D7020005768617420706F72743A00506F7274206E6F7420737570706F72746576
:20E2400064004D7573742062652061206C65747465720020005772697474696E6720454577
:20E260000052656164696E6720454500656570726F6D206572726F7220636F756E743D00E2
:20E28000504F525400303D5A65726F20616464726573732063747273003F3D435055207353
:20E2A0007461747300403D454550524F4D207465737400423D426C696E6B204C45440045D4
:20E2C0003D44756D7020454550524F4D00463D44756D7020464C41534800483D48656C70CE
:20E2E000004C3D4C69737420492F4F20506F72747300513D517569742026206A756D702067
:20E30000746F20757365722070676D00523D44756D702052414D00563D73686F7720696E67
:20E320007465727275707420566563746F727300593D506F727420626C696E6B002A0052DA
:20E340004553455400494E543000494E543100494E543200494E543300494E543400494E64
:20E36000543500494E543600494E5437005043494E5430005043494E5431005043494E54F6
:20E3800032005744540054494D45523020434F4D50410054494D45523020434F4D504200D9
:20E3A00054494D455230204F56460054494D45523120434150540054494D45523120434F43
:20E3C0004D50410054494D45523120434F4D50420054494D45523120434F4D50430054493B
:20E3E0004D455231204F56460054494D45523220434F4D50410054494D45523220434F4D08
:20E4000050420054494D455232204F56460054494D45523320434150540054494D455233FC
:20E4200020434F4D50410054494D45523320434F4D50420054494D45523320434F4D5043C1
:20E440000054494D455233204F56460054494D45523420434150540054494D4552342043E8
:20E460004F4D50410054494D45523420434F4D50420054494D45523420434F4D504300548E
:20E48000494D455234204F56460054494D45523520434150540054494D45523520434F4D5D
:20E4A00050410054494D45523520434F4D50420054494D45523520434F4D50430054494D52
:20E4C000455235204F56460055534152543020525800555341525430205544524500555325
:20E4E0004152543020545800555341525431205258005553415254312055445245005553F7
:20E500004152543120545800555341525432205258005553415254322055445245005553D3
:20E520004152543220545800555341525433205258005553415254332055445245005553B0
:20E540004152543320545800535049205354430041444300414E414C4F4720434F4D500016
:20E560004545205245414459005457490053504D205245414459002A003FE345E34AE34F13
:20E58000E354E359E35EE363E368E36DE374E37BE382E3E9E3F6E303E4ABE3B7E3C4E3D1BD
:20E5A000E3DEE386E393E3A0E348E5C8E4D2E4DEE454E550E560E50EE41AE427E434E441FD
:20E5C000E4E8E4F2E4FEE469E56DE54CE458E465E472E47FE48AE496E4A3E4B0E4BDE40819
:20E5E000E512E51EE528E532E53EE50011241FBECFEFD1E2DEBFCDBF01E00CBF12E0A0E02B
:20E60000B2E0EAEDFFEF03E00BBF02C007900D92A030B107D9F712E0A0E0B2E001C01D9232
:20E62000AC30B107E1F70F94FBF40D94EBFF01E20EBF0FEF0DBF11241FBE0D94FBF40D9494
:20E6400000F020E030E040ED57E005C0FA013197F1F72F5F3F4F28173907C0F308959C015E
:20E66000442737FD4095542FDA01C901860F911DA11DB11DABBFFC018791882369F0809399
:20E68000C6008091C00086FFFCCF8091C00080648093C0006F5FE8CF08958DE08093C600A3
:20E6A0008091C00086FFFCCF8091C00080648093C0008AE08093C6008091C00086FFFCCF4D
:20E6C0008091C00080648093C00008950F942FF30F944DF30895FC019081992359F090939A
:20E6E000C6008091C00086FFFCCF8091C00080648093C0003196992379F70895282F982FFD
:20E7000092959F70892F805D8A3308F0895F8093C6008091C00086FFFCCF8091C0008064E2
:20E720008093C000822F8F70982F905D9A3308F0995F9093C6008091C00086FFFCCF8091CA
:20E74000C00080648093C00008959C01FB01853691051CF46330710594F0C90164E670E0BA
:20E760000F948CFF605D7F4F6093C6008091C00086FFFCCF8091C00080648093C0002B3023
:20E78000310514F43297B4F0C90164E670E00F948CFF6AE070E00F948CFF605D7F4F6093F6
:20E7A000C6008091C00086FFFCCF8091C00080648093C000C9016AE070E00F948CFFC09602
:20E7C0008093C6008091C00086FFFCCF8091C00080648093C0000895282F277020642093F5
:20E7E0007C0020917B0086958695869590E08170907033E0880F991F3A95E1F7277F282BBD
:20E8000020937B0080917A00806480937A0080917A0086FDFCCF2091780040917900942FBF
:20E8200080E030E0282B392BC90108951F93182F80E892EE60E00F942FF31093C6008091EA
:20E84000C00086FFFCCF8091C00080648093C0000F944DF31F9108952F923F924F925F928C
:20E860006F927F928F929F92AF92BF92CF92DF92EF92FF920F931F93DF93CF93CDB7DEB77D
:20E8800062970FB6F894DEBF0FBECDBF382E622ECA01DB015C016D01772460E2262E2E0170
:20E8A0000894411C511C8BC081E0A81680E0B80681E0C80680E0D80628F0C601AA27BB276B
:20E8C0000F947EF3BB27AD2D9C2D8B2D0F947EF38A2D0F947EF32092C6008091C00086FF3A
:20E8E000FCCF8091C00080648093C0009DE29093C6008091C00086FFFCCF8091C000806487
:20E900008093C0002092C6008091C00086FFFCCF8091C00080648093C0001982860175016B
:20E9200088249924A1E03A1651F03A1620F0B2E03B1661F409C00BBFF701779007C0C701A3
:20E940000F94D5FF782E02C0F7017080872D0F947EF32092C6008091C00086FFFCCF80917E
:20E96000C00080648093C000872D8052F401EF70F0708F3520F4E40DF51D708204C0E40D64
:20E98000F51D8EE280830894E11CF11C011D111D0894811C911C90E18916910409F0C2CFEB
:20E9A00080E190E0A0E0B0E0A80EB91ECA1EDB1E198AC2010F946BF30F944DF36A9466203A
:20E9C00009F072CF62960FB6F894DEBF0FBECDBFCF91DF911F910F91FF90EF90DF90CF90C2
:20E9E000BF90AF909F908F907F906F905F904F903F902F9008952F923F924F925F926F92CF
:20EA00007F928F929F92AF92BF92CF92DF92EF92FF920F931F93DF93CF93CDB7DEB7CD53BC
:20EA2000D1400FB6F894DEBF0FBECDBF279A2F9A8091C00082608093C00080E18093C40036
:20EA400088E18093C1000000EE24FF248701B4E0AB2EB12CCC24DD2424C0C5010197F1F757
:20EA60000894E11CF11C011D111D21E2E2162EE4F20620E0020720E0120718F0A1E0CA2EFC
:20EA8000D12CC801B70128E53BE140E050E00F949FFF611571058105910519F485B180581B
:20EAA00085B98091C00087FD03C0C114D104A9F2A6014F5F5F4FC25EDE4F59834883CE51A5
:20EAC000D140C25EDE4F68817981CE51D1406130710511F00D946EFFC05DDE4F1982188230
:20EAE000C053D14060E0C15DDE4F1882CF52D140AA24BB24C05EDE4F188219821A821B8235
:20EB0000C052D140CE5CDE4F188219821A821B82C253D14080E090E0A0E0B0E0ABBFFC01A0
:20EB2000A791B691C45CDE4FB983A883CC53D1400D9469FFC25EDE4FE881F981CE51D14009
:20EB4000319709F52091C600C25EDE4F19821882CE51D14022C02F5F3F4F4F4F5F4F21302B
:20EB6000F2E13F07FAE74F07F0E05F0780F0C45CDE4F08811981CC53D1400F5F1F4F19F01A
:20EB8000EE27FF27099420E030E040E050E08091C00087FFE0CF2091C600213209F094C61A
:20EBA0000894A11CB11C33E0A316B10409F08EC600E010E018C041E24093C6008091C0002C
:20EBC00086FFFCCF8091C00080648093C0002F5F3F4F2931310579F70F944DF30F5F1F4F82
:20EBE0000530110519F020E030E0E5CF109208021092090210920A0210920B02109204029F
:20EC0000109205021092060210920702109200021092010210920202109203028FEE90EE65
:20EC200060E00F9466F380E191EE60E00F942FF38091C00087FFFCCF9091C600903608F0EC
:20EC40009F759032B8F09093C6008091C00086FFFCCF8091C00080648093C00080E280932F
:20EC6000C6008091C00086FFFCCF8091C00080648093C000983409F4DBC19934B8F4923481
:20EC800009F45DC1933458F4903319F1903308F418C69F33A1F1903409F013C6BDC095349C
:20ECA00009F474C1963409F00CC69CC1923509F42FC2933538F49C3409F4F9C1913509F041
:20ECC00000C61CC2963509F449C2993509F0F9C59CC485E892EE62E00F9466F31092040205
:20ECE000109205021092060210920702109208021092090210920A0210920B0217C189E916
:20ED000092EE62E00F9466F38FEE90EE60E00F9466F381E291EE60E00F942FF381EC91EE2B
:20ED200060E00F9466F381E391EE60E00F942FF384EE90EE60E00F9466F381E491EE60E05F
:20ED40000F942FF386E090E061E070E00F94A5F30F944DF381E691EE60E00F942FF383ED0E
:20ED600091EE60E00F9466F381E591EE60E00F942FF38DEC91EE60E00F9466F381E791EED3
:20ED800060E00F942FF38EE10F947EF388E90F947EF381E00F947EF30F944DF381E891EE26
:20EDA00060E00F942FF319E0E0E0F0E010935700E4918E2F0F947EF30F944DF381E991EEB9
:20EDC00060E00F942FF3E3E0F0E010935700E4918E2F0F947EF30F944DF381EA91EE60E04E
:20EDE0000F942FF3E2E0F0E010935700E4918E2F0F947EF30F944DF381EB91EE60E00F94CB
:20EE00002FF3E1E0F0E0109357001491812F0F947EF30F944DF307CF85EA92EE62E00F944F
:20EE200066F385E592EE60E00F9466F30F944DF300E010E019C0C8016F2D0F94DDFFFF20C4
:20EE400031F483E592EE60E00F942FF30BC0F092C6008091C00086FFFCCF8091C0008064B7
:20EE60008093C0000F5F1F4FC80181519F41AA2797FDA095BA2FABBFFC01F7905AE2F516B0
:20EE800021F062E000301607B1F60F944DF30F944DF381E692EE60E00F9466F30F944DF35F
:20EEA000CC24DD2400E010E01EC0C8010F94D5FFF82E882331F483E592EE60E00F942FF390
:20EEC0000BC08093C6008091C00086FFFCCF8091C00080648093C000FE1419F00894C11C51
:20EEE000D11C0F5F1F4FC80181519F41AA2797FDA095BA2FABBFFC01E7907AE2E71621F003
:20EF000082E00030180789F60F944DF30F944DF38CE692EE60E00F942FF3C60161E070E0AC
:20EF20000F94A5F30F944DF30F944DF31092000210920102109202021092030274CE83EB8A
:20EF400092EE62E00F9466F3279A2F9A16C02F9880E090E0E0EDF7E03197F1F70196843657
:20EF60009105C1F72F9A80E090E0E0EDF7E03197F1F7019684369105C1F78091C00087FF60
:20EF8000E6CF8091C00087FFFCCF95C48FEB92EE62E00F9466F34091000250910102609161
:20EFA00002027091030281E020E10F942CF48091000290910102A0910202B09103028050A0
:20EFC0009F4FAF4FBF4F8093000290930102A0930202B093030280509041A040B04008F410
:20EFE00022CEA4CF8DEC92EE62E00F9466F34091040250910502609106027091070280E055
:20F0000020E10F942CF48091040290910502A0910602B091070280509F4FAF4FBF4F80938D
:20F02000040290930502A0930602B0930702FBCD8AED92EE62E00F9466F385E892EE60E0EF
:20F040000F9466F389E992EE60E00F9466F385EA92EE60E00F9466F383EB92EE60E00F948A
:20F0600066F38FEB92EE60E00F9466F38DEC92EE60E00F9466F38AED92EE60E00F9466F399
:20F0800081EE92EE60E00F9466F382EF92EE60E00F9466F38CE093EE60E00F9466F387E187
:20F0A00093EE60E00F9466F380E393EEB9CD81EE92EE62E00F9466F381E40F9416F482E484
:20F0C0000F9416F483E40F9416F484E40F9416F485E40F9416F486E40F9416F487E40F941F
:20F0E00016F488E40F9416F48AE40F9416F48BE40F9416F48CE40F9416F495CD82EF92EE46
:20F1000062E00F9466F399249394AA24BB2445C48CE093EE62E00F9466F340910802509130
:20F12000090260910A0270910B0282E020E10F942CF48091080290910902A0910A02B091CE
:20F140000B0280509F4FAF4FBF4F8093080290930902A0930A02B0930B0265CD87E193EEE3
:20F1600062E00F9466F384EE90EE60E00F9466F389ED91EE60E00F9466F309E715EECC5DD8
:20F18000DE4F19830883C452D140662477244301CA5DDE4F19821882C652D140A4019301A0
:20F1A0005695479537952795C85DDE4F288339834A835B83C852D140CA5DDE4F488159817A
:20F1C000C652D1404F5F5F4FCA5DDE4F59834883C652D140CA0162E070E00F94A5F350E2BC
:20F1E0005093C6008091C00086FFFCCF8091C00080648093C0006DE26093C6008091C000E4
:20F2000086FFFCCF8091C00080648093C00070E27093C6008091C00086FFFCCF8091C00009
:20F2200080648093C000C85DDE4FE880F9800A811B81C852D140BB27A12F902F8F2D0F94C2
:20F240007EF3C85DDE4F8881C852D1400F947EF370E2F72EF092C6008091C00086FFFCCFC3
:20F260008091C00080648093C0000DE30093C6008091C00086FFFCCF8091C00080648093D4
:20F28000C00010E21093C6008091C00086FFFCCF8091C00080648093C0008BBEF3012791B5
:20F2A000C45DDE4F2883CC52D140A22EBB24CC24DD240894611C711C811C911C8BBEF30159
:20F2C0008791282E332444245524142D032DF22CEE24EA0CFB1C0C1D1D1D0894611C711CD1
:20F2E000811C911C8BBEF3013791C35DDE4F3883CD52D1400894611C711C811C911C8BBE4E
:20F30000F3014791C25DDE4F4883CE52D1402DEF3FEF4FEF5FEF620E731E841E951E0F940A
:20F320007EF330E23093C6008091C00086FFFCCF8091C00080648093C000C45DDE4F8881C1
:20F34000CC52D1400F947EF340E24093C6008091C00086FFFCCF8091C00080648093C00006
:20F36000C25DDE4F8881CE52D1400F947EF350E25093C6008091C00086FFFCCF8091C00026
:20F3800080648093C000C35DDE4F8881CD52D1400F947EF360E26093C6008091C00086FFCB
:20F3A000FCCF8091C00080648093C0007FEFE7167FEFF70670E0070770E0170731F48EE0C5
:20F3C00092EE60E00F942FF3DFC0D801C7018070907CA070B0708050904CA040B040D1F5FA
:20F3E0002FEF3FE340E050E0E222F32204231523C85DDE4FA880B980CA80DB80C852D14082
:20F40000AE0CBF1CC01ED11EAA0CBB1CCC1CDD1C88E192EE60E00F942FF3BB27A12F902FBD
:20F420008F2D0F947EF38E2D0F947EF330E23093C6008091C00086FFFCCF8091C0008064BC
:20F440008093C0004EE34093C6008091C00086FFFCCF87C06EE07EEF80E090E0E622F722FB
:20F46000082319237CE0E71674E9F70670E0070770E0170709F088C0C25DDE4F8881CE52F0
:20F48000D140E82EFF2400E010E0102F0F2DFE2CEE24C35DDE4F9881CD52D140E90EF11C01
:20F4A000011D111DD601C50181709070A070B070DC0199278827E80EF91E0A1F1B1F20EF77
:20F4C00030E040E050E0A222B322C422D522F1E1AA0CBB1CCC1CDD1CFA95D1F7EA0CFB1CB2
:20F4E0000C1D1D1D41E050E060E070E02422352246225722E5E1220C331C441C551CEA95B7
:20F50000D1F7E20CF31C041D151D57016801AA0CBB1CCC1CDD1C8FE192EE60E00F942FF3AF
:20F52000C801AA27BB270F947EF3BB27A12F902F8F2D0F947EF38E2D0F947EF350E2509316
:20F54000C6008091C00086FFFCCF8091C00080648093C0006EE36093C6008091C00086FFDC
:20F56000FCCF8091C00080648093C000C601AA27BB270F947EF3BB27AD2D9C2D8B2D0F94CA
:20F580007EF38A2D0F947EF370E27093C6008091C00086FFFCCF8091C00080648093C0006B
:20F5A000CC5DDE4FE881F981C452D140CF01AA2797FDA095BA2FABBFFC018791969160E0B2
:20F5C0000F942FF30F944DF3CC5DDE4F08811981C452D1400E5F1F4FCC5DDE4F198308838B
:20F5E000C452D140CA5DDE4F28813981C652D1402933310509F417CB44E050E060E070E0AF
:20F60000640E751E861E971EC9CD80E393EE62E00F9466F384E292EE60E00F942FF38091D8
:20F62000C00087FFFCCF1091C6001F751093C6008091C00086FFFCCF8091C000806480936C
:20F64000C0000F944DF3812F81548A3108F036C1163409F495C0173490F4133409F44EC01B
:20F66000143430F41134F1F0123409F01DC130C0143409F459C0153409F016C16BC01A34FB
:20F6800009F4C4C01B3438F4173409F48FC0183409F00AC1A1C01B3409F4D2C01C3409F03F
:20F6A00003C1E8C08FEF81B90DC082B1809582B980E090E0E0EDF7E03197F1F70196883C57
:20F6C0009105C1F78091C00087FFEFCF12B8EFC08FEF84B90DC085B1809585B980E090E06D
:20F6E000E0EDF7E03197F1F70196883C9105C1F78091C00087FFEFCF15B8D9C08FEF87B9D4
:20F700000DC088B1809588B980E090E0E0EDF7E03197F1F70196883C9105C1F78091C000EF
:20F7200087FFEFCF18B8C3C08FEF8AB90DC08BB180958BB980E090E0E0EDF7E03197F1F7EB
:20F740000196883C9105C1F78091C00087FFEFCF1BB8ADC08FEF8DB90DC08EB180958EB97F
:20F7600080E090E0E0EDF7E03197F1F70196883C9105C1F78091C00087FFEFCF1EB897C07A
:20F780008FEF80BB0DC081B3809581BB80E090E0E0EDF7E03197F1F70196883C9105C1F791
:20F7A0008091C00087FFEFCF11BA81C08FEF83BB0DC084B3809584BB80E090E0E0EDF7E0A0
:20F7C0003197F1F70196883C9105C1F78091C00087FFEFCF14BA6BC08FEF809301010FC060
:20F7E0008091020180958093020180E090E0E0EDF7E03197F1F70196883C9105C1F78091EC
:20F80000C00087FFEDCF1092020151C08FEF809304010FC08091050180958093050180E026
:20F8200090E0E0EDF7E03197F1F70196883C9105C1F78091C00087FFEDCF1092050137C0A9
:20F840008FEF809307010FC08091080180958093080180E090E0E0EDF7E03197F1F701963A
:20F86000883C9105C1F78091C00087FFEDCF109208011DC08FEF80930A010FC080910B0153
:20F88000809580930B0180E090E0E0EDF7E03197F1F70196883C9105C1F78091C00087FF10
:20F8A000EDCF10920B0103C08FE292EEB9C98091C00087FFFCCF8091C600B5C982E492EE4B
:20F8C000AFC98CE191EEACC9AA24BB24933061F1943028F4913089F0923008F508C0953027
:20F8E000B1F1953040F1963009F053C04EC02B3109F020C991E06BE11DC9213041F0C15D0F
:20F90000DE4F5881CF52D140251709F002C36227C15DDE4F2883CF52D14092E00BC9B22FDD
:20F92000A0E0622793E006C9822F90E0A82BB92B622794E0FFC82E3009F0EBC2622795E0DE
:20F94000C05DDE4F19821882C053D140F3C8E1E0F0E0EC0FFD1FC05DDE4FE880F980C05363
:20F96000D140EE0DFF1D208387010F5F1F4FC05DDE4F19830883C053D14062270A171B07F7
:20F9800009F0D8C8D80196E0D5C8261709F0C1C203C0973009F0CEC899248981833109F498
:20F9A000FCC08431C8F4863009F4C2C0873050F4823009F4F0C0833009F458C0813009F019
:20F9C0000AC23EC0813109F462C0823108F0A6C0803109F000C2DFC0883109F472C08931CE
:20F9E00050F4853109F4D9C0853108F477C1863109F0F1C173C18A3109F457C08A3108F471
:20FA00007CC08B3109F446C08D3109F0E4C18D81803311F090E00AC08F81882311F49EE154
:20FA200005C0813011F091E001C098E91A821B828D818C831D829E831F8227E030E0CFC13E
:20FA40001A8288E08B8381E48C8386E58D8382E58E8389E48F8383E5888780E589878FE54E
:20FA60008A8782E38B872BE030E0B9C18A81813941F0823941F0803911F48FE005C080E035
:20FA800003C082E001C08AE01A828B8344C09924939481C08D81882311F48EE12CC0813079
:20FAA00011F081E028C088E926C01A82E1E0F0E089E08093570084918B831C8224E030E0D0
:20FAC0008EC18B81803589F48C81883039F4E2E0F0E089E08093570084910DC0E0E0F0E0D0
:20FAE00089E080935700849106C0E3E0F0E089E08093570084911A82DFCF8D81836C99E01D
:20FB0000E1E0F0E0082E90935700E89507B600FCFDCF1A821B8223E030E061C11A82CE5C6E
:20FB2000DE4F188219821A821B82C253D14055C18A8190E0A0E0B0E0582F442733272227CE
:20FB40008B8190E0A0E0B0E0DC0199278827282B392B4A2B5B2B8D8190E0A0E0B0E0282B3A
:20FB6000392B4A2B5B2B8C8190E0A0E0B0E0BA2FA92F982F8827282B392B4A2B5B2B220F7F
:20FB8000331F441F551FC05EDE4F288339834A835B83C052D1401A8220C19A812B818331C4
:20FBA00049F0C05EDE4F488159816A817B81C052D1408AC0CE5CDE4F488159816A817B81E9
:20FBC000C253D140403080EC580783E0680780E07807F0F483E0FA0160935B008093570019
:20FBE000E89507B600FCFDCFCE5CDE4F488159816A817B81C253D14040505F4F6F4F7F4F32
:20FC0000CE5CDE4F488359836A837B83C253D140C95CDE4F9883C753D140CA5CDE4F188250
:20FC2000C653D140022F10E0CA5CDE4F68817981C653D140062B172BC05EDE4F48815981B8
:20FC40006A817B81C052D140DE011B9631E08C9111962C9111971296C75CDE4F2883C95311
:20FC6000D140C85CDE4F1882C853D14090E0C85CDE4FE881F981C853D1408E2B9F2B0C01FC
:20FC8000FA0160935B0030935700E89511244E5F5F4F6F4F7F4F02501040C9F685E0C05E84
:20FCA000DE4FE880F9800A811B81C052D140F70100935B0080935700E89507B600FCFDCF9A
:20FCC00081E180935700E8951A82C05EDE4F488359836A837B83C052D1407FC0FA80C55C65
:20FCE000DE4FF882CB53D140C65CDE4F1882CA53D1408B81C82EDD24C65CDE4F08811981A2
:20FD0000CA53D140C02AD12A1A828981BE016D5F7F4F843121F59601C05EDE4FE880F98043
:20FD20000A811B81C052D1400BBFF70187919691DB018C9311969C936E5F7F4FD801C7016B
:20FD40000296A11DB11DC05EDE4F88839983AA83BB83C052D14022503040F1F636C0C05EA2
:20FD6000DE4F288139814A815B81C052D1400894C108D108760100E010E00894C11CD11C3E
:20FD80000894E11CF11C011D111DE20EF31E041F151F21BDBB27A52F942F832F82BD2F5F43
:20FDA0003F4F4F4F5F4FF89A80B5DB018D93BD012E153F054007510761F7C05EDE4F288374
:20FDC00039834A835B83C052D14096012D5F3F4FFB01108204C080EC8A8322E030E08BE19F
:20FDE0008093C6008091C00086FFFCCF8091C00080648093C000C15DDE4FF881CF52D1408B
:20FE0000F093C6008091C00086FFFCCF8091C00080648093C000432F3093C6008091C00024
:20FE200086FFFCCF8091C00080648093C000922F2093C6008091C00086FFFCCF8091C000BE
:20FE400080648093C0008EE08093C6008091C00086FFFCCF8091C00080648093C00065E1B5
:20FE6000C15DDE4FE880CF52D1406E2569276427FE01319610C090819093C6008091C0008E
:20FE800086FFFCCF31968091C00080648093C0006927215030402115310569F76093C600CD
:20FEA0008091C00086FFFCCF8091C00080648093C00085B1805885B9992081F4C15DDE4FD4
:20FEC0000881CF52D1400F5FC15DDE4F0883CF52D14090E0A0E0B0E00D949AF527982F98BB
:20FEE00080E090E020ED37E0F9013197F1F7019684369105C9F700008091C0008D7F8093CD
:20FF0000C00081E180935700E895EE27FF270994FFCF90E00D949AF597FB092E07260AD0C2
:20FF200077FD04D02ED006D000201AF4709561957F4F0895F6F7909581959F4F0895A1E2DB
:20FF40001A2EAA1BBB1BFD010DC0AA1FBB1FEE1FFF1FA217B307E407F50720F0A21BB30B40
:20FF6000E40BF50B661F771F881F991F1A9469F760957095809590959B01AC01BD01CF01FF
:20FF80000895AA1BBB1B51E107C0AA1FBB1FA617B70710F0A61BB70B881F991F5A95A9F7A1
:20FFA00080959095BC01CD010895F999FECF92BD81BDF89A992780B50895262FF999FECF1B
:1AFFC0001FBA92BD81BD20BD0FB6F894FA9AF99A0FBE01960895F894FFCF11
:00000001FF
